{
  "_format": "hh-sol-artifact-1",
  "contractName": "Notary",
  "sourceName": "Notary.sol",
  "abi": [
    {
      "inputs": [
        {
          "internalType": "address[]",
          "name": "_validators",
          "type": "address[]"
        },
        {
          "internalType": "address",
          "name": "_gateway",
          "type": "address"
        },
        {
          "internalType": "address",
          "name": "_gasReceiver",
          "type": "address"
        }
      ],
      "stateMutability": "nonpayable",
      "type": "constructor"
    },
    {
      "inputs": [],
      "name": "InvalidAddress",
      "type": "error"
    },
    {
      "inputs": [],
      "name": "NotApprovedByGateway",
      "type": "error"
    },
    {
      "anonymous": false,
      "inputs": [
        {
          "indexed": true,
          "internalType": "address",
          "name": "sender",
          "type": "address"
        },
        {
          "indexed": true,
          "internalType": "address",
          "name": "receiver",
          "type": "address"
        },
        {
          "indexed": false,
          "internalType": "uint256",
          "name": "amount",
          "type": "uint256"
        },
        {
          "indexed": false,
          "internalType": "string",
          "name": "thisSymbol",
          "type": "string"
        },
        {
          "indexed": false,
          "internalType": "string",
          "name": "targetChain",
          "type": "string"
        },
        {
          "indexed": false,
          "internalType": "string",
          "name": "targetContract",
          "type": "string"
        },
        {
          "indexed": false,
          "internalType": "bool",
          "name": "success",
          "type": "bool"
        }
      ],
      "name": "CrossSendExecuted",
      "type": "event"
    },
    {
      "anonymous": false,
      "inputs": [
        {
          "indexed": false,
          "internalType": "uint256",
          "name": "amount",
          "type": "uint256"
        },
        {
          "indexed": false,
          "internalType": "string",
          "name": "thisSymbol",
          "type": "string"
        },
        {
          "indexed": false,
          "internalType": "bool",
          "name": "success",
          "type": "bool"
        }
      ],
      "name": "Executed",
      "type": "event"
    },
    {
      "anonymous": false,
      "inputs": [
        {
          "indexed": true,
          "internalType": "address",
          "name": "previousOwner",
          "type": "address"
        },
        {
          "indexed": true,
          "internalType": "address",
          "name": "newOwner",
          "type": "address"
        }
      ],
      "name": "OwnershipTransferred",
      "type": "event"
    },
    {
      "inputs": [
        {
          "internalType": "address",
          "name": "receiver",
          "type": "address"
        },
        {
          "internalType": "uint256",
          "name": "amount",
          "type": "uint256"
        },
        {
          "internalType": "string",
          "name": "this_symbol",
          "type": "string"
        },
        {
          "internalType": "string",
          "name": "targetChain",
          "type": "string"
        },
        {
          "internalType": "string",
          "name": "targetContract",
          "type": "string"
        }
      ],
      "name": "crossSend",
      "outputs": [],
      "stateMutability": "payable",
      "type": "function"
    },
    {
      "inputs": [
        {
          "internalType": "uint256",
          "name": "amount",
          "type": "uint256"
        },
        {
          "internalType": "string",
          "name": "this_symbol",
          "type": "string"
        }
      ],
      "name": "deposit",
      "outputs": [],
      "stateMutability": "nonpayable",
      "type": "function"
    },
    {
      "inputs": [
        {
          "internalType": "bytes32",
          "name": "commandId",
          "type": "bytes32"
        },
        {
          "internalType": "string",
          "name": "sourceChain",
          "type": "string"
        },
        {
          "internalType": "string",
          "name": "sourceAddress",
          "type": "string"
        },
        {
          "internalType": "bytes",
          "name": "payload",
          "type": "bytes"
        }
      ],
      "name": "execute",
      "outputs": [],
      "stateMutability": "nonpayable",
      "type": "function"
    },
    {
      "inputs": [
        {
          "internalType": "bytes32",
          "name": "commandId",
          "type": "bytes32"
        },
        {
          "internalType": "string",
          "name": "sourceChain",
          "type": "string"
        },
        {
          "internalType": "string",
          "name": "sourceAddress",
          "type": "string"
        },
        {
          "internalType": "bytes",
          "name": "payload",
          "type": "bytes"
        },
        {
          "internalType": "string",
          "name": "tokenSymbol",
          "type": "string"
        },
        {
          "internalType": "uint256",
          "name": "amount",
          "type": "uint256"
        }
      ],
      "name": "executeWithToken",
      "outputs": [],
      "stateMutability": "nonpayable",
      "type": "function"
    },
    {
      "inputs": [],
      "name": "gasService",
      "outputs": [
        {
          "internalType": "contract IAxelarGasService",
          "name": "",
          "type": "address"
        }
      ],
      "stateMutability": "view",
      "type": "function"
    },
    {
      "inputs": [],
      "name": "gateway",
      "outputs": [
        {
          "internalType": "contract IAxelarGateway",
          "name": "",
          "type": "address"
        }
      ],
      "stateMutability": "view",
      "type": "function"
    },
    {
      "inputs": [],
      "name": "getAllUTXOs",
      "outputs": [
        {
          "components": [
            {
              "internalType": "address",
              "name": "owner",
              "type": "address"
            },
            {
              "internalType": "uint256",
              "name": "amount",
              "type": "uint256"
            },
            {
              "internalType": "bool",
              "name": "spent",
              "type": "bool"
            },
            {
              "internalType": "string",
              "name": "symbol",
              "type": "string"
            }
          ],
          "internalType": "struct Notary.UTXO[]",
          "name": "",
          "type": "tuple[]"
        }
      ],
      "stateMutability": "view",
      "type": "function"
    },
    {
      "inputs": [
        {
          "internalType": "address",
          "name": "user",
          "type": "address"
        }
      ],
      "name": "getUserUTXOIndexes",
      "outputs": [
        {
          "internalType": "uint256[]",
          "name": "",
          "type": "uint256[]"
        }
      ],
      "stateMutability": "view",
      "type": "function"
    },
    {
      "inputs": [],
      "name": "owner",
      "outputs": [
        {
          "internalType": "address",
          "name": "",
          "type": "address"
        }
      ],
      "stateMutability": "view",
      "type": "function"
    },
    {
      "inputs": [],
      "name": "renounceOwnership",
      "outputs": [],
      "stateMutability": "nonpayable",
      "type": "function"
    },
    {
      "inputs": [
        {
          "internalType": "uint256",
          "name": "amount",
          "type": "uint256"
        },
        {
          "internalType": "string",
          "name": "this_symbol",
          "type": "string"
        }
      ],
      "name": "test",
      "outputs": [
        {
          "internalType": "address",
          "name": "",
          "type": "address"
        }
      ],
      "stateMutability": "view",
      "type": "function"
    },
    {
      "inputs": [
        {
          "internalType": "address",
          "name": "newOwner",
          "type": "address"
        }
      ],
      "name": "transferOwnership",
      "outputs": [],
      "stateMutability": "nonpayable",
      "type": "function"
    },
    {
      "inputs": [
        {
          "internalType": "address",
          "name": "",
          "type": "address"
        },
        {
          "internalType": "uint256",
          "name": "",
          "type": "uint256"
        }
      ],
      "name": "userUTXOIndexes",
      "outputs": [
        {
          "internalType": "uint256",
          "name": "",
          "type": "uint256"
        }
      ],
      "stateMutability": "view",
      "type": "function"
    },
    {
      "inputs": [
        {
          "internalType": "uint256",
          "name": "",
          "type": "uint256"
        }
      ],
      "name": "utxos",
      "outputs": [
        {
          "internalType": "address",
          "name": "owner",
          "type": "address"
        },
        {
          "internalType": "uint256",
          "name": "amount",
          "type": "uint256"
        },
        {
          "internalType": "bool",
          "name": "spent",
          "type": "bool"
        },
        {
          "internalType": "string",
          "name": "symbol",
          "type": "string"
        }
      ],
      "stateMutability": "view",
      "type": "function"
    },
    {
      "inputs": [
        {
          "internalType": "address",
          "name": "sender",
          "type": "address"
        }
      ],
      "name": "validateTransaction",
      "outputs": [
        {
          "internalType": "bool",
          "name": "",
          "type": "bool"
        }
      ],
      "stateMutability": "view",
      "type": "function"
    },
    {
      "inputs": [
        {
          "internalType": "address",
          "name": "",
          "type": "address"
        }
      ],
      "name": "validators",
      "outputs": [
        {
          "internalType": "bool",
          "name": "",
          "type": "bool"
        }
      ],
      "stateMutability": "view",
      "type": "function"
    },
    {
      "inputs": [
        {
          "internalType": "uint256",
          "name": "utxoIndex",
          "type": "uint256"
        },
        {
          "internalType": "string",
          "name": "this_symbol",
          "type": "string"
        }
      ],
      "name": "withdraw",
      "outputs": [],
      "stateMutability": "nonpayable",
      "type": "function"
    }
  ],
  "bytecode": "0x60c06040523480156200001157600080fd5b506040516200225e3803806200225e833981016040819052620000349162000176565b816200004033620000f3565b6001600160a01b038116620000685760405163e6c4247b60e01b815260040160405180910390fd5b6001600160a01b03908116608052811660a05260005b8351811015620000e9576001806000868481518110620000a257620000a26200026e565b6020908102919091018101516001600160a01b03168252810191909152604001600020805460ff191691151591909117905580620000e08162000284565b9150506200007e565b50505050620002ae565b600080546001600160a01b038381166001600160a01b0319831681178455604051919092169283917f8be0079c531659141344cd1fd0a4f28419497f9722a3daafe3b4186f6b6457e09190a35050565b634e487b7160e01b600052604160045260246000fd5b80516001600160a01b03811681146200017157600080fd5b919050565b6000806000606084860312156200018c57600080fd5b83516001600160401b0380821115620001a457600080fd5b818601915086601f830112620001b957600080fd5b8151602082821115620001d057620001d062000143565b8160051b604051601f19603f83011681018181108682111715620001f857620001f862000143565b60405292835281830193508481018201928a8411156200021757600080fd5b948201945b838610156200024057620002308662000159565b855294820194938201936200021c565b975062000251905088820162000159565b955050505050620002656040850162000159565b90509250925092565b634e487b7160e01b600052603260045260246000fd5b6000600019821415620002a757634e487b7160e01b600052601160045260246000fd5b5060010190565b60805160a051611f4b62000313600039600081816101e60152610b2b015260008181610125015281816104410152818161055d015281816108910152818161094d01528181610be101528181610ca101528181610dd901526110f50152611f4b6000f3fe60806040526004361061010e5760003560e01c80638da5cb5b116100a5578063cef66e7311610074578063f1215d2511610059578063f1215d2514610356578063f2fde38b14610376578063fa52c7d81461039657600080fd5b8063cef66e7314610323578063dc048cf21461033657600080fd5b80638da5cb5b1461027a5780638fa3a84c14610298578063a6a91e7c146102e1578063ad1c61fd1461030357600080fd5b80636a22d8cc116100e15780636a22d8cc146101d4578063715018a614610208578063740319551461021d578063815913871461024a57600080fd5b8063116191b61461011357806318688183146101645780631a98b2e01461019257806349160658146101b4575b600080fd5b34801561011f57600080fd5b506101477f000000000000000000000000000000000000000000000000000000000000000081565b6040516001600160a01b0390911681526020015b60405180910390f35b34801561017057600080fd5b5061018461017f366004611632565b6103c6565b60405190815260200161015b565b34801561019e57600080fd5b506101b26101ad3660046116a7565b6103f7565b005b3480156101c057600080fd5b506101b26101cf366004611781565b610513565b3480156101e057600080fd5b506101477f000000000000000000000000000000000000000000000000000000000000000081565b34801561021457600080fd5b506101b2610615565b34801561022957600080fd5b5061023d610238366004611825565b610629565b60405161015b9190611849565b34801561025657600080fd5b5061026a61026536600461188d565b610695565b60405161015b9493929190611902565b34801561028657600080fd5b506000546001600160a01b0316610147565b3480156102a457600080fd5b506102d16102b3366004611825565b6001600160a01b031660009081526001602052604090205460ff1690565b604051901515815260200161015b565b3480156102ed57600080fd5b506102f661076b565b60405161015b919061193c565b34801561030f57600080fd5b5061014761031e366004611a75565b61088c565b6101b2610331366004611abc565b610933565b34801561034257600080fd5b506101b2610351366004611a75565b610d6e565b34801561036257600080fd5b506101b2610371366004611a75565b6110db565b34801561038257600080fd5b506101b2610391366004611825565b6113f4565b3480156103a257600080fd5b506102d16103b1366004611825565b60016020526000908152604090205460ff1681565b600360205281600052604060002081815481106103e257600080fd5b90600052602060002001600091509150505481565b60008585604051610409929190611b61565b6040519081900381207f1876eed900000000000000000000000000000000000000000000000000000000825291506001600160a01b037f00000000000000000000000000000000000000000000000000000000000000001690631876eed990610486908e908e908e908e908e9089908d908d908d90600401611b9a565b602060405180830381600087803b1580156104a057600080fd5b505af11580156104b4573d6000803e3d6000fd5b505050506040513d601f19601f820116820180604052508101906104d89190611bf9565b6104f557604051631403112d60e21b815260040160405180910390fd5b6105068a8a8a8a8a8a8a8a8a611484565b5050505050505050505050565b60008282604051610525929190611b61565b6040519081900381207f5f6970c300000000000000000000000000000000000000000000000000000000825291506001600160a01b037f00000000000000000000000000000000000000000000000000000000000000001690635f6970c39061059c908b908b908b908b908b908990600401611c1b565b602060405180830381600087803b1580156105b657600080fd5b505af11580156105ca573d6000803e3d6000fd5b505050506040513d601f19601f820116820180604052508101906105ee9190611bf9565b61060b57604051631403112d60e21b815260040160405180910390fd5b5050505050505050565b61061d6114cd565b6106276000611527565b565b6001600160a01b03811660009081526003602090815260409182902080548351818402810184019094528084526060939283018282801561068957602002820191906000526020600020905b815481526020019060010190808311610675575b50505050509050919050565b600281815481106106a557600080fd5b600091825260209091206004909102018054600182015460028301546003840180546001600160a01b039094169550919360ff909116929091906106e890611c5c565b80601f016020809104026020016040519081016040528092919081815260200182805461071490611c5c565b80156107615780601f1061073657610100808354040283529160200191610761565b820191906000526020600020905b81548152906001019060200180831161074457829003601f168201915b5050505050905084565b60606002805480602002602001604051908101604052809291908181526020016000905b82821015610883576000848152602090819020604080516080810182526004860290920180546001600160a01b03168352600181015493830193909352600283015460ff161515908201526003820180549192916060840191906107f290611c5c565b80601f016020809104026020016040519081016040528092919081815260200182805461081e90611c5c565b801561086b5780601f106108405761010080835404028352916020019161086b565b820191906000526020600020905b81548152906001019060200180831161084e57829003601f168201915b5050505050815250508152602001906001019061078f565b50505050905090565b6000807f00000000000000000000000000000000000000000000000000000000000000006001600160a01b031663935b13f6846040518263ffffffff1660e01b81526004016108db9190611c97565b60206040518083038186803b1580156108f357600080fd5b505afa158015610907573d6000803e3d6000fd5b505050506040513d601f19601f8201168201806040525081019061092b9190611caa565b949350505050565b6040516349ad89fb60e11b81526000906001600160a01b037f0000000000000000000000000000000000000000000000000000000000000000169063935b13f690610982908790600401611c97565b60206040518083038186803b15801561099a57600080fd5b505afa1580156109ae573d6000803e3d6000fd5b505050506040513d601f19601f820116820180604052508101906109d29190611caa565b90508085610a275760405162461bcd60e51b815260206004820181905260248201527f416d6f756e74206d7573742062652067726561746572207468616e207a65726f60448201526064015b60405180910390fd5b6040516323b872dd60e01b8152336004820152306024820152604481018790526001600160a01b038216906323b872dd90606401602060405180830381600087803b158015610a7557600080fd5b505af1158015610a89573d6000803e3d6000fd5b505050506040513d601f19601f82011682018060405250810190610aad9190611bf9565b610af95760405162461bcd60e51b815260206004820152600f60248201527f5472616e73666572206661696c656400000000000000000000000000000000006044820152606401610a1e565b604080516001600160a01b038916602082015290810187905260009060600160405160208183030381529060405290507f00000000000000000000000000000000000000000000000000000000000000006001600160a01b031663c62c200234308888868c8e336040518963ffffffff1660e01b8152600401610b829796959493929190611cc7565b6000604051808303818588803b158015610b9b57600080fd5b505af1158015610baf573d6000803e3d6000fd5b50506040517f095ea7b30000000000000000000000000000000000000000000000000000000081526001600160a01b037f000000000000000000000000000000000000000000000000000000000000000081166004830152602482018c90528616935063095ea7b392506044019050602060405180830381600087803b158015610c3857600080fd5b505af1158015610c4c573d6000803e3d6000fd5b505050506040513d601f19601f82011682018060405250810190610c709190611bf9565b506040517fb54170840000000000000000000000000000000000000000000000000000000081526001600160a01b037f0000000000000000000000000000000000000000000000000000000000000000169063b541708490610cde908890889086908c908e90600401611d41565b600060405180830381600087803b158015610cf857600080fd5b505af1158015610d0c573d6000803e3d6000fd5b50505050876001600160a01b0316336001600160a01b03167f3036fd6a7de2d8c7458a833938c1170b70ec5ae186914c275f4f65134b3fab3a898989896001604051610d5c959493929190611da1565b60405180910390a35050505050505050565b6002548210610dbf5760405162461bcd60e51b815260206004820152601260248201527f496e76616c6964205554584f20696e64657800000000000000000000000000006044820152606401610a1e565b6040516349ad89fb60e11b81526000906001600160a01b037f0000000000000000000000000000000000000000000000000000000000000000169063935b13f690610e0e908590600401611c97565b60206040518083038186803b158015610e2657600080fd5b505afa158015610e3a573d6000803e3d6000fd5b505050506040513d601f19601f82011682018060405250810190610e5e9190611caa565b90506000819050600060028581548110610e7a57610e7a611df5565b6000918252602090912060049091020180549091506001600160a01b03163314610ee65760405162461bcd60e51b815260206004820152601960248201527f4e6f7420746865206f776e6572206f6620746865205554584f000000000000006044820152606401610a1e565b83604051602001610ef79190611e0b565b6040516020818303038152906040528051906020012081600301604051602001610f219190611e27565b6040516020818303038152906040528051906020012014610f845760405162461bcd60e51b815260206004820152601960248201527f4e6f7420746865206f776e6572206f6620746865205554584f000000000000006044820152606401610a1e565b600281015460ff1615610fd95760405162461bcd60e51b815260206004820152601b60248201527f5554584f2068617320616c7265616479206265656e207370656e7400000000006044820152606401610a1e565b60028101805460ff191660019081179091558101546040517fa9059cbb00000000000000000000000000000000000000000000000000000000815233600482015260248101919091526001600160a01b0383169063a9059cbb90604401602060405180830381600087803b15801561105057600080fd5b505af1158015611064573d6000803e3d6000fd5b505050506040513d601f19601f820116820180604052508101906110889190611bf9565b6110d45760405162461bcd60e51b815260206004820152601560248201527f546f6b656e207472616e73666572206661696c656400000000000000000000006044820152606401610a1e565b5050505050565b6040516349ad89fb60e11b81526000906001600160a01b037f0000000000000000000000000000000000000000000000000000000000000000169063935b13f69061112a908590600401611c97565b60206040518083038186803b15801561114257600080fd5b505afa158015611156573d6000803e3d6000fd5b505050506040513d601f19601f8201168201806040525081019061117a9190611caa565b905080836111ca5760405162461bcd60e51b815260206004820181905260248201527f416d6f756e74206d7573742062652067726561746572207468616e207a65726f6044820152606401610a1e565b6040516323b872dd60e01b8152336004820152306024820152604481018590526001600160a01b038216906323b872dd90606401602060405180830381600087803b15801561121857600080fd5b505af115801561122c573d6000803e3d6000fd5b505050506040513d601f19601f820116820180604052508101906112509190611bf9565b61129c5760405162461bcd60e51b815260206004820152600f60248201527f5472616e73666572206661696c656400000000000000000000000000000000006044820152606401610a1e565b60408051608081018252338152602080820187815260009383018481526060840188815260028054600181018255965284517f405787fa12a823e0f2b7631cc41b3ba8828b3321ca811111fa75cd3aa3bb5ace6004909702968701805473ffffffffffffffffffffffffffffffffffffffff19166001600160a01b0390921691909117815592517f405787fa12a823e0f2b7631cc41b3ba8828b3321ca811111fa75cd3aa3bb5acf87015590517f405787fa12a823e0f2b7631cc41b3ba8828b3321ca811111fa75cd3aa3bb5ad08601805460ff1916911515919091179055518051939491936113b5937f405787fa12a823e0f2b7631cc41b3ba8828b3321ca811111fa75cd3aa3bb5ad1909301929190910190611584565b50503360009081526003602052604090206002549091506113d890600190611ec3565b8154600181018355600092835260209092209091015550505050565b6113fc6114cd565b6001600160a01b0381166114785760405162461bcd60e51b815260206004820152602660248201527f4f776e61626c653a206e6577206f776e657220697320746865207a65726f206160448201527f64647265737300000000000000000000000000000000000000000000000000006064820152608401610a1e565b61148181611527565b50565b7f1272e3c9aa0e5e890df7ea7a2f9a0b7d15a644ebc610cf7bcef9becc2e0323c481848460016040516114ba9493929190611ee8565b60405180910390a1505050505050505050565b6000546001600160a01b031633146106275760405162461bcd60e51b815260206004820181905260248201527f4f776e61626c653a2063616c6c6572206973206e6f7420746865206f776e65726044820152606401610a1e565b600080546001600160a01b0383811673ffffffffffffffffffffffffffffffffffffffff19831681178455604051919092169283917f8be0079c531659141344cd1fd0a4f28419497f9722a3daafe3b4186f6b6457e09190a35050565b82805461159090611c5c565b90600052602060002090601f0160209004810192826115b257600085556115f8565b82601f106115cb57805160ff19168380011785556115f8565b828001600101855582156115f8579182015b828111156115f85782518255916020019190600101906115dd565b50611604929150611608565b5090565b5b808211156116045760008155600101611609565b6001600160a01b038116811461148157600080fd5b6000806040838503121561164557600080fd5b82356116508161161d565b946020939093013593505050565b60008083601f84011261167057600080fd5b50813567ffffffffffffffff81111561168857600080fd5b6020830191508360208285010111156116a057600080fd5b9250929050565b60008060008060008060008060008060c08b8d0312156116c657600080fd5b8a35995060208b013567ffffffffffffffff808211156116e557600080fd5b6116f18e838f0161165e565b909b50995060408d013591508082111561170a57600080fd5b6117168e838f0161165e565b909950975060608d013591508082111561172f57600080fd5b61173b8e838f0161165e565b909750955060808d013591508082111561175457600080fd5b506117618d828e0161165e565b9150809450508092505060a08b013590509295989b9194979a5092959850565b60008060008060008060006080888a03121561179c57600080fd5b87359650602088013567ffffffffffffffff808211156117bb57600080fd5b6117c78b838c0161165e565b909850965060408a01359150808211156117e057600080fd5b6117ec8b838c0161165e565b909650945060608a013591508082111561180557600080fd5b506118128a828b0161165e565b989b979a50959850939692959293505050565b60006020828403121561183757600080fd5b81356118428161161d565b9392505050565b6020808252825182820181905260009190848201906040850190845b8181101561188157835183529284019291840191600101611865565b50909695505050505050565b60006020828403121561189f57600080fd5b5035919050565b60005b838110156118c15781810151838201526020016118a9565b838111156118d0576000848401525b50505050565b600081518084526118ee8160208601602086016118a6565b601f01601f19169290920160200192915050565b6001600160a01b0385168152836020820152821515604082015260806060820152600061193260808301846118d6565b9695505050505050565b60006020808301818452808551808352604092508286019150828160051b87010184880160005b838110156119c457888303603f19018552815180516001600160a01b031684528781015188850152868101511515878501526060908101516080918501829052906119b0818601836118d6565b968901969450505090860190600101611963565b509098975050505050505050565b634e487b7160e01b600052604160045260246000fd5b600082601f8301126119f957600080fd5b813567ffffffffffffffff80821115611a1457611a146119d2565b604051601f8301601f19908116603f01168101908282118183101715611a3c57611a3c6119d2565b81604052838152866020858801011115611a5557600080fd5b836020870160208301376000602085830101528094505050505092915050565b60008060408385031215611a8857600080fd5b82359150602083013567ffffffffffffffff811115611aa657600080fd5b611ab2858286016119e8565b9150509250929050565b600080600080600060a08688031215611ad457600080fd5b8535611adf8161161d565b945060208601359350604086013567ffffffffffffffff80821115611b0357600080fd5b611b0f89838a016119e8565b94506060880135915080821115611b2557600080fd5b611b3189838a016119e8565b93506080880135915080821115611b4757600080fd5b50611b54888289016119e8565b9150509295509295909350565b8183823760009101908152919050565b81835281816020850137506000828201602090810191909152601f909101601f19169091010190565b89815260c060208201526000611bb460c083018a8c611b71565b8281036040840152611bc781898b611b71565b90508660608401528281036080840152611be2818688611b71565b9150508260a08301529a9950505050505050505050565b600060208284031215611c0b57600080fd5b8151801515811461184257600080fd5b868152608060208201526000611c35608083018789611b71565b8281036040840152611c48818688611b71565b915050826060830152979650505050505050565b600181811c90821680611c7057607f821691505b60208210811415611c9157634e487b7160e01b600052602260045260246000fd5b50919050565b60208152600061184260208301846118d6565b600060208284031215611cbc57600080fd5b81516118428161161d565b60006001600160a01b03808a16835260e06020840152611cea60e084018a6118d6565b8381036040850152611cfc818a6118d6565b90508381036060850152611d1081896118d6565b90508381036080850152611d2481886118d6565b60a0850196909652509290921660c0909101525095945050505050565b60a081526000611d5460a08301886118d6565b8281036020840152611d6681886118d6565b90508281036040840152611d7a81876118d6565b90508281036060840152611d8e81866118d6565b9150508260808301529695505050505050565b85815260a060208201526000611dba60a08301876118d6565b8281036040840152611dcc81876118d6565b90508281036060840152611de081866118d6565b91505082151560808301529695505050505050565b634e487b7160e01b600052603260045260246000fd5b60008251611e1d8184602087016118a6565b9190910192915050565b600080835481600182811c915080831680611e4357607f831692505b6020808410821415611e6357634e487b7160e01b86526022600452602486fd5b818015611e775760018114611e8857611eb5565b60ff19861689528489019650611eb5565b60008a81526020902060005b86811015611ead5781548b820152908501908301611e94565b505084890196505b509498975050505050505050565b600082821015611ee357634e487b7160e01b600052601160045260246000fd5b500390565b848152606060208201526000611f02606083018587611b71565b905082151560408301529594505050505056fea26469706673582212205cfc75c6d55bb0bb3122d52bc987fd4676890ef2374fd6d0c187b04e755f43b564736f6c63430008090033",
  "linkReferences": {},
  "deployedLinkReferences": {}
}