{
  "_format": "hh-sol-artifact-1",
  "contractName": "Notary",
  "sourceName": "Notarybp.sol",
  "abi": [
    {
      "inputs": [
        {
          "internalType": "address[]",
          "name": "_validators",
          "type": "address[]"
        }
      ],
      "stateMutability": "nonpayable",
      "type": "constructor"
    },
    {
      "anonymous": false,
      "inputs": [
        {
          "indexed": true,
          "internalType": "address",
          "name": "previousOwner",
          "type": "address"
        },
        {
          "indexed": true,
          "internalType": "address",
          "name": "newOwner",
          "type": "address"
        }
      ],
      "name": "OwnershipTransferred",
      "type": "event"
    },
    {
      "inputs": [
        {
          "internalType": "uint256",
          "name": "amount",
          "type": "uint256"
        }
      ],
      "name": "deposit",
      "outputs": [],
      "stateMutability": "nonpayable",
      "type": "function"
    },
    {
      "inputs": [
        {
          "internalType": "address",
          "name": "user",
          "type": "address"
        }
      ],
      "name": "getBalance",
      "outputs": [
        {
          "internalType": "uint256",
          "name": "",
          "type": "uint256"
        }
      ],
      "stateMutability": "view",
      "type": "function"
    },
    {
      "inputs": [],
      "name": "owner",
      "outputs": [
        {
          "internalType": "address",
          "name": "",
          "type": "address"
        }
      ],
      "stateMutability": "view",
      "type": "function"
    },
    {
      "inputs": [],
      "name": "renounceOwnership",
      "outputs": [],
      "stateMutability": "nonpayable",
      "type": "function"
    },
    {
      "inputs": [],
      "name": "token",
      "outputs": [
        {
          "internalType": "contract IERC20",
          "name": "",
          "type": "address"
        }
      ],
      "stateMutability": "view",
      "type": "function"
    },
    {
      "inputs": [
        {
          "internalType": "address",
          "name": "",
          "type": "address"
        }
      ],
      "name": "tokenBalances",
      "outputs": [
        {
          "internalType": "uint256",
          "name": "",
          "type": "uint256"
        }
      ],
      "stateMutability": "view",
      "type": "function"
    },
    {
      "inputs": [
        {
          "internalType": "address",
          "name": "newOwner",
          "type": "address"
        }
      ],
      "name": "transferOwnership",
      "outputs": [],
      "stateMutability": "nonpayable",
      "type": "function"
    },
    {
      "inputs": [
        {
          "internalType": "address",
          "name": "sender",
          "type": "address"
        }
      ],
      "name": "validateTransaction",
      "outputs": [
        {
          "internalType": "bool",
          "name": "",
          "type": "bool"
        }
      ],
      "stateMutability": "view",
      "type": "function"
    },
    {
      "inputs": [
        {
          "internalType": "address",
          "name": "",
          "type": "address"
        }
      ],
      "name": "validators",
      "outputs": [
        {
          "internalType": "bool",
          "name": "",
          "type": "bool"
        }
      ],
      "stateMutability": "view",
      "type": "function"
    },
    {
      "inputs": [
        {
          "internalType": "uint256",
          "name": "amount",
          "type": "uint256"
        },
        {
          "internalType": "address",
          "name": "recipient",
          "type": "address"
        }
      ],
      "name": "withdraw",
      "outputs": [],
      "stateMutability": "nonpayable",
      "type": "function"
    }
  ],
  "bytecode": "0x608060405234801561001057600080fd5b5060405161071438038061071483398101604081905261002f91610128565b610038336100a6565b60005b815181101561009f57600180600084848151811061005b5761005b6101ec565b6020908102919091018101516001600160a01b03168252810191909152604001600020805460ff19169115159190911790558061009781610202565b91505061003b565b505061022b565b600080546001600160a01b038381166001600160a01b0319831681178455604051919092169283917f8be0079c531659141344cd1fd0a4f28419497f9722a3daafe3b4186f6b6457e09190a35050565b634e487b7160e01b600052604160045260246000fd5b80516001600160a01b038116811461012357600080fd5b919050565b6000602080838503121561013b57600080fd5b82516001600160401b038082111561015257600080fd5b818501915085601f83011261016657600080fd5b815181811115610178576101786100f6565b8060051b604051601f19603f8301168101818110858211171561019d5761019d6100f6565b6040529182528482019250838101850191888311156101bb57600080fd5b938501935b828510156101e0576101d18561010c565b845293850193928501926101c0565b98975050505050505050565b634e487b7160e01b600052603260045260246000fd5b600060001982141561022457634e487b7160e01b600052601160045260246000fd5b5060010190565b6104da8061023a6000396000f3fe608060405234801561001057600080fd5b50600436106100bd5760003560e01c8063b6b55f2511610076578063f8b2cb4f1161005b578063f8b2cb4f14610199578063fa52c7d8146101c2578063fc0c546a146101e557600080fd5b8063b6b55f2514610173578063f2fde38b1461018657600080fd5b8063715018a6116100a7578063715018a61461010a5780638da5cb5b146101125780638fa3a84c1461013757600080fd5b8062f714ce146100c2578063523fba7f146100d7575b600080fd5b6100d56100d03660046103df565b6101f8565b005b6100f76100e536600461040b565b60026020526000908152604090205481565b6040519081526020015b60405180910390f35b6100d5610231565b6000546001600160a01b03165b6040516001600160a01b039091168152602001610101565b61016361014536600461040b565b6001600160a01b031660009081526001602052604090205460ff1690565b6040519015158152602001610101565b6100d561018136600461042d565b610245565b6100d561019436600461040b565b61026c565b6100f76101a736600461040b565b6001600160a01b031660009081526002602052604090205490565b6101636101d036600461040b565b60016020526000908152604090205460ff1681565b60035461011f906001600160a01b031681565b610200610301565b6001600160a01b03811660009081526002602052604081208054849290610228908490610475565b90915550505050565b610239610301565b610243600061035b565b565b336000908152600260205260408120805483929061026490849061048c565b909155505050565b610274610301565b6001600160a01b0381166102f55760405162461bcd60e51b815260206004820152602660248201527f4f776e61626c653a206e6577206f776e657220697320746865207a65726f206160448201527f646472657373000000000000000000000000000000000000000000000000000060648201526084015b60405180910390fd5b6102fe8161035b565b50565b6000546001600160a01b031633146102435760405162461bcd60e51b815260206004820181905260248201527f4f776e61626c653a2063616c6c6572206973206e6f7420746865206f776e657260448201526064016102ec565b600080546001600160a01b038381167fffffffffffffffffffffffff0000000000000000000000000000000000000000831681178455604051919092169283917f8be0079c531659141344cd1fd0a4f28419497f9722a3daafe3b4186f6b6457e09190a35050565b80356001600160a01b03811681146103da57600080fd5b919050565b600080604083850312156103f257600080fd5b82359150610402602084016103c3565b90509250929050565b60006020828403121561041d57600080fd5b610426826103c3565b9392505050565b60006020828403121561043f57600080fd5b5035919050565b7f4e487b7100000000000000000000000000000000000000000000000000000000600052601160045260246000fd5b60008282101561048757610487610446565b500390565b6000821982111561049f5761049f610446565b50019056fea2646970667358221220516d2f14ba7368f4d2d802445019d61299d244a3508b8b5a01d796f9e437b48c64736f6c63430008090033",
  "linkReferences": {},
  "deployedLinkReferences": {}
}